:100000000C9434000C9451000C9451000C94510049
:100010000C9451000C9451000C9451000C9451001C
:100020000C9451000C9451000C9451000C9451000C
:100030000C9451000C9451000C9451000C945100FC
:100040000C9451000C9451000C9451000C945100EC
:100050000C9451000C9451000C9451000C945100DC
:100060000C9451000C94510011241FBECFEFD8E026
:10007000DEBFCDBF11E0A0E0B1E0E8E3F3E002C0F5
:1000800005900D92A632B107D9F721E0A6E2B1E0C2
:1000900001C01D92A833B207E1F70E946F010C94D2
:1000A0009A010C9400001092C50087E68093C4006A
:1000B000E0ECF0E080818D7F808386E08093C20059
:1000C00088E18093C10008959091C00095FFFCCF16
:1000D0008093C6008091C00086FFFCCF08950F93E7
:1000E0001F93CF93DF9320E225B9EC018C01060F1B
:1000F000171FC017D10721F089910E946400F9CF22
:1001000015B8DF91CF911F910F9108951092B9000A
:1001100081E18093B80084E08093BC00089584EA74
:100120008093BC008091BC0087FFFCCF0895809134
:10013000BC0080FDFCCF84E98093BC0008958093CF
:10014000BB0084EC8093BC008091BC0087FFFCCF97
:100150008FE79BEB0197F1F700C00000089584EC56
:100160008093BC008091BC0087FFFCCF8091BB00D6
:10017000089584E88093BC008091BC0087FFFCCF89
:100180008091BB0008958091B900887F0895809187
:10019000B900887F0895CF93DF9300D01F92CDB729
:1001A000DEB7E82FE295EF70F0E0E050FF4F90816E
:1001B00099838F70E82FF0E0E050FF4F80818A83B1
:1001C0008AE08B8363E070E0CE0101960E946F00AD
:1001D0000F900F900F90DF91CF910895CF93DF9301
:1001E000C0E00E948F008C2F880F0E949F00D0914A
:1001F000B9000E949700D87FD83101F565E170E021
:1002000080E191E00E946F00EC2FE595E595E59582
:10021000E5950E2E000CFF0BE050FF4F80810E94F1
:100220006400EC2FEF700E2E000CFF0BE050FF4F20
:1002300080810E9464008AE00E946400CF5FCF3713
:1002400081F6DF91CF9108958CB580658CBD8CB51A
:100250008C7F8CBD8DB58EB58DB581608DBD2FEF3A
:1002600080E792E0215080409040E1F700C000001C
:1002700008958EBD0DB407FEFDCF8EB508950F9382
:100280001F93CF93DF93289A2898C0E0D0E02A9854
:100290008E010A5D1E4FF80180810E943901F8012C
:1002A00081810E943901F80182810E9439012A9AD4
:1002B0008FE39CE90197F1F700C00000299AEFE372
:1002C000FCE93197F1F700C0000029982396C2316C
:1002D000D105E9F6DF91CF911F910F9108958FE23B
:1002E00084B90E94530081E085B92FEF80E792E046
:1002F000215080409040E1F700C0000015B80E94F6
:1003000024012FEF81EE94E0215080409040E1F7EE
:1003100000C0000080E090E02FEFFC01EA5DFE4F9E
:10032000208321832283039682319105B1F70E94B5
:080330003F01FDCFF894FFCF5F
:100338003031323334353637383961626364656653
:10034800466F756E642069326320646576696365FB
:060358002061743A200050
:00000001FF
