:100000000C9434000C9451000C9451000C94510049
:100010000C9451000C9451000C9451000C9451001C
:100020000C9451000C9451000C9451000C9451000C
:100030000C9451000C9451000C9451000C945100FC
:100040000C9451000C9451000C9451000C945100EC
:100050000C9451000C9451000C9451000C945100DC
:100060000C9451000C94510011241FBECFEFD8E026
:10007000DEBFCDBF11E0A0E0B1E0EEE8F3E002C0EA
:1000800005900D92A832B107D9F721E0A8E2B1E0BE
:1000900001C01D92AA33B207E1F70E94A1010C949E
:1000A000C5010C9400001092C50087E68093C4003F
:1000B000E0ECF0E080818D7F808386E08093C20059
:1000C00088E18093C10008959091C00095FFFCCF16
:1000D0008093C6008091C00086FFFCCF08950F93E7
:1000E0001F93CF93DF93EC018C01060F171FC017EE
:1000F000D10721F089910E946400F9CFDF91CF915F
:100100001F910F9108958091C00087FFFCCF8091CF
:10011000C60008951092B90081E18093B80084E090
:100120008093BC00089584EA8093BC008091BC0059
:1001300087FFFCCF08958091BC0080FDFCCF84E94F
:100140008093BC0008958093BB0084EC8093BC0036
:100150008091BC0087FFFCCF8FE79BEB0197F1F705
:1001600000C00000089584EC8093BC008091BC0026
:1001700087FFFCCF8091BB00089584E88093BC008A
:100180008091BC0087FFFCCF8091BB0008958091D7
:10019000B900887F08958091B900887F0895CF9332
:1001A000DF9300D01F92CDB7DEB7E82FE295EF7056
:1001B000F0E0E050FF4F908199838F70E82FF0E0DE
:1001C000E050FF4F80818A838AE08B8363E070E098
:1001D000CE0101960E946F000F900F900F90DF915B
:1001E000CF910895CF93DF93C0E00E9493008C2FAE
:1001F000880F0E94A300D091B9000E949B00D87F75
:10020000D83101F565E170E080E191E00E946F0076
:10021000EC2FE595E595E595E5950E2E000CFF0B89
:10022000E050FF4F80810E946400EC2FEF700E2E93
:10023000000CFF0BE050FF4F80810E9464008AE0B9
:100240000E946400CF5FCF3781F6DF91CF91089590
:10025000089528E030E080FF02C02B9A01C02B985F
:1002600086952D9A2D9821503109A9F708950F935D
:100270001F93CF93DF932FEF81EE94E021508040C6
:100280009040E1F700C000002898C0E0D0E02A9A32
:10029000EFEFF1EE24E0E150F0402040E1F700C044
:1002A00000008E01085D1E4FF80180810E94290127
:1002B000FFEF21EE84E0F15020408040E1F700C0E4
:1002C0000000F80181810E942901FFEF21EE84E006
:1002D000F15020408040E1F700C00000F801828129
:1002E0000E942901FFEF21EE84E0F1502040804080
:1002F000E1F700C000002A989FEFE7E8F3E1915092
:10030000E040F040E1F700C0000029982FEF81EEB7
:1003100094E0215080409040E1F700C00000299A0D
:1003200061E070E086E291E00E946F002396C231A6
:10033000D10509F0ACCF289ADF91CF911F910F9191
:10034000089584B18F6284B9289A8FE39CE901975C
:10035000F1F700C0000028989FEF21EE84E0915053
:1003600020408040E1F700C0000080E090E02FEFE7
:10037000FC01E85DFE4F20832183228303968231B6
:0E0380009105B1F70E943701FDCFF894FFCF31
:10038E0030313233343536373839616263646566FD
:10039E00466F756E642069326320646576696365A5
:0803AE002061743A20002E00CA
:00000001FF
