:100000000C9434000C9451000C9451000C94510049
:100010000C9451000C9451000C9451000C9451001C
:100020000C9451000C9451000C9451000C9451000C
:100030000C9451000C9451000C9451000C945100FC
:100040000C9451000C9451000C9451000C945100EC
:100050000C9451000C9451000C9451000C945100DC
:100060000C9451000C94510011241FBECFEFD8E026
:10007000DEBFCDBF11E0A0E0B1E0E4ECF4E002C0EF
:1000800005900D92A832B107D9F721E0A8E2B1E0BE
:1000900001C01D92AC33B207E1F70E94F0010C944D
:1000A00060020C9400001092C50087E68093C400A3
:1000B000E0ECF0E080818D7F808386E08093C20059
:1000C00088E18093C10008959091C00095FFFCCF16
:1000D0008093C6008091C00086FFFCCF0895809376
:1000E000C60008950F931F93CF93DF93EC018C010B
:1000F000060F171FC017D10721F089910E946400D5
:10010000F9CFDF91CF911F910F9108958091C00099
:1001100087FFFCCF8091C60008952091C00027FF83
:1001200006C02091C600FC01208381E0089580E094
:1001300008951092B90081E18093B80084E0809323
:10014000BC00089584EA8093BC008091BC0087FFC6
:10015000FCCF08958091BC0080FDFCCF84E98093A2
:10016000BC0008958093BB0084EC8093BC00809118
:10017000BC0087FFFCCF8FE79BEB0197F1F700C036
:100180000000089584EC8093BC008091BC0087FF40
:10019000FCCF8091BB00089584E88093BC008091DF
:1001A000BC0087FFFCCF8091BB0008958091B9000F
:1001B000887F08958091B900887F0895CF93DF9359
:1001C00000D01F92CDB7DEB7E82FE295EF70F0E0D8
:1001D000EF5FFE4F908199838F70E82FF0E0EF5F23
:1001E000FE4F80818A838AE08B8363E070E0CE01DA
:1001F00001960E9472000F900F900F90DF91CF91A7
:100200000895CF93DF93C0E00E94A2008C2F880F47
:100210000E94B200D091B9000E94AA00D87FD831C4
:1002200001F565E170E081E191E00E947200EC2F40
:10023000E595E595E595E5950E2E000CFF0BEF5F36
:10024000FE4F80810E946400EC2FEF700E2E000C98
:10025000FF0BEF5FFE4F80810E9464008AE00E94E6
:100260006400CF5FCF3781F6DF91CF9108958CB5D1
:1002700080658CBD8CB58C7F8CBD1DBC1EBC08956B
:100280008EBD0DB407FEFDCF8EB508950F931F935D
:10029000CF93DF93289A2898C0E0D0E02A9A8E0165
:1002A000085D1E4FF80180810E944001F8018181A4
:1002B0000E944001F80182810E9440012A98299AF7
:1002C00029982396C231D10549F7DF91CF911F912B
:1002D0000F910895CF93DF93E8E2F1E0C9E2D1E016
:1002E000AAE2B1E080819881991F9927991F282F50
:1002F000220F922B90839C91292F221F2227221FAD
:100300009881990F922B98839C91990F881F882729
:10031000881F892B8C9333962396139681E0EA33BA
:10032000F80701F7DF91CF910895FC01EE0FFF1F51
:100330008E0F9F1FFC01E85DFE4F60834183228387
:100340000895CF93DF931F92CDB7DEB7CE0101960C
:100350000E948D00882309F43FC080913B018823CF
:1003600019F08130D1F038C08981893431F481E0CD
:1003700080933B0110923A0104C0833511F40E942E
:100380006A018981823419F41092000125C08334F6
:1003900019F581E0809300011FC040913A0142317C
:1003A000C8F4842F63E00E9454022BEA429F212D5F
:1003B0001124269530E0F901EE0FFF1FE20FF31F25
:1003C000E90FF11DE85DFE4F898180834F5F409307
:1003D0003A0102C010923B010F90DF91CF91089536
:1003E00084B18F6284B90E945300289A8FE39CE9FC
:1003F0000197F1F700C0000028980E9437019FEF95
:1004000021EE84E0915020408040E1F700C00000E0
:1004100081E1809328018093290180932A0192E24F
:1004200090932B0190932C0190932D0124E4209321
:100430002E0120932F01209330012093310120932E
:1004400032012093330190933401909335019093BE
:100450003601809337018093380180933901C0E0E1
:10046000D0E0DF5F0E94460180910001082E000C61
:10047000990B21E030E0DD2311F020E030E028236B
:100480003923232B09F0CF5F21E030E0C33310F490
:1004900020E030E082239323892B19F00E946A0127
:1004A000C1E00E94A101DDCF991B79E004C0991F32
:1004B000961708F0961B881F7A95C9F780950895BE
:0404C000F894FFCFDE
:1004C400013031323334353637383961626364652B
:1004D40066466F756E64206932632064657669636D
:0804E400652061743A2000005C
:00000001FF
