:100000000C9434000C9451000C9451000C94510049
:100010000C9451000C9451000C9451000C9451001C
:100020000C9451000C9451000C9451000C9451000C
:100030000C9451000C9451000C9451000C945100FC
:100040000C9451000C9451000C9451000C945100EC
:100050000C9451000C9451000C9451000C945100DC
:100060000C9451000C94510011241FBECFEFD8E026
:10007000DEBFCDBF11E0A0E0B1E0ECEBF4E002C0E8
:1000800005900D92A832B107D9F721E0A8E2B1E0BE
:1000900001C01D92A836B207E1F70E9414020C9429
:1000A0005C020C9400001092C50087E68093C400A7
:1000B000E0ECF0E080818D7F808386E08093C20059
:1000C00088E18093C10008959091C00095FFFCCF16
:1000D0008093C6008091C00086FFFCCF08950F93E7
:1000E0001F93CF93DF93EC018C01060F171FC017EE
:1000F000D10721F089910E946400F9CFDF91CF915F
:100100001F910F9108958091C00087FFFCCF8091CF
:10011000C60008951092B90081E18093B80084E090
:100120008093BC00089584EA8093BC008091BC0059
:1001300087FFFCCF08958091BC0080FDFCCF84E94F
:100140008093BC0008958093BB0084EC8093BC0036
:100150008091BC0087FFFCCF8FE79BEB0197F1F705
:1001600000C00000089584EC8093BC008091BC0026
:1001700087FFFCCF8091BB00089584E88093BC008A
:100180008091BC0087FFFCCF8091BB0008958091D7
:10019000B900887F08958091B900887F0895CF9332
:1001A000DF9300D01F92CDB7DEB7E82FE295EF7056
:1001B000F0E0E050FF4F908199838F70E82FF0E0DE
:1001C000E050FF4F80818A838AE08B8363E070E098
:1001D000CE0101960E946F000F900F900F90DF915B
:1001E000CF910895CF93DF93C0E00E9493008C2FAE
:1001F000880F0E94A300D091B9000E949B00D87F75
:10020000D83101F565E170E080E191E00E946F0076
:10021000EC2FE595E595E595E5950E2E000CFF0B89
:10022000E050FF4F80810E946400EC2FEF700E2E93
:10023000000CFF0BE050FF4F80810E9464008AE0B9
:100240000E946400CF5FCF3781F6DF91CF91089590
:100250008CB580658CBD8CB58C7F8CBD1DBC1EBCE7
:1002600008958EBD0DB407FEFDCF8EB508950E9492
:100270008300843409F4A1C00CF041C0813309F437
:100280005AC0ECF4803309F08EC080E00E94310146
:100290002FEF81EE94E0215080409040E1F700C0C4
:1002A000000080E00E9431012FEF81EE94E02150A8
:1002B00080409040E1F700C0000080E06FC08533CF
:1002C00009F453C0863309F06EC086E60E943101FE
:1002D0002FEF81EE94E0215080409040E1F700C084
:1002E000000086E60E9431012FEF81EE94E021505C
:1002F00080409040E1F700C0000086E64FC08436A1
:1003000009F44FC02CF48C3409F04DC02A9856C023
:100310008C3679F0823709F046C0289A2FEF81EEAB
:1003200094E0215080409040E1F700C00000289800
:1003300045C02A9A43C08FEF0E9431012FEF81EE12
:1003400094E0215080409040E1F700C000008FEF22
:100350000E9431012FEF81EE94E0215080409040C7
:10036000E1F700C000008FEF19C085E50E94310160
:100370002FEF81EE94E0215080409040E1F700C0E3
:10038000000085E50E9431012FEF81EE94E02150BD
:1003900080409040E1F700C0000085E50E943101F7
:1003A0000DC029980BC029982FEF81EE94E02150C1
:1003B00080409040E1F700C00000299A61E070E0C1
:1003C00086E291E00C946F000F931F93CF93DF931D
:1003D000289A2898C0E0D0E02A9A8E01085D1E4F26
:1003E000F80180810E943101F80181810E94310170
:1003F000F80182810E9431012A982998299A289629
:10040000C033D10549F7DF91CF911F910F91089526
:1004100033E0880F991F3A95E1F7FC01E85DFE4F44
:10042000608341832283089584B18F6284B9289ABE
:100430008FE39CE90197F1F700C0000028980E9423
:1004400028019FEF21EE84E0915020408040E1F7A9
:1004500000C0000080E780932801109229011092CB
:100460002A0188E8809330011092310180E2809364
:10047000320180E8809338011092390110923A01DC
:1004800081E88093400199E1909341018CEA809347
:1004900042018AE88093480182EA809349018AEA0E
:1004A00080934A0121E7209350019093510180935A
:0C04B00052010E94E401FDCFF894FFCF40
:1004BC0030313233343536373839616263646566CE
:1004CC00466F756E64206932632064657669636576
:0804DC002061743A20002E009B
:00000001FF
