:100000000C9434000C9451000C9451000C94510049
:100010000C9451000C9451000C9451000C9451001C
:100020000C9451000C9451000C9451000C9451000C
:100030000C9451000C9451000C9451000C945100FC
:100040000C9451000C9451000C9451000C945100EC
:100050000C9451000C9451000C9451000C945100DC
:100060000C9451000C94510011241FBECFEFD8E026
:10007000DEBFCDBF11E0A0E0B1E0ECEFF5E002C0E3
:1000800005900D92A832B107D9F721E0A8E2B1E0BE
:1000900001C01D92AB35B207E1F70E9495020C94A6
:1000A000FC020C9400001092C50087E68093C40007
:1000B000E0ECF0E080818D7F808386E08093C20059
:1000C00088E18093C10008959091C00095FFFCCF16
:1000D0008093C6008091C00086FFFCCF0895809376
:1000E000C60008950F931F93CF93DF93EC018C010B
:1000F000060F171FC017D10721F089910E946400D5
:10010000F9CFDF91CF911F910F9108958091C00099
:1001100087FFFCCF8091C60008952091C00027FF83
:1001200006C02091C600FC01208381E0089580E094
:1001300008951092B90081E18093B80084E0809323
:10014000BC00089584EA8093BC008091BC0087FFC6
:10015000FCCF08958091BC0080FDFCCF84E98093A2
:10016000BC0008958093BB0084EC8093BC00809118
:10017000BC0087FFFCCF8FE79BEB0197F1F700C036
:100180000000089584EC8093BC008091BC0087FF40
:10019000FCCF8091BB00089584E88093BC008091DF
:1001A000BC0087FFFCCF8091BB0008958091B9000F
:1001B000887F08958091B900887F0895CF93DF9359
:1001C00000D01F92CDB7DEB7E82FE295EF70F0E0D8
:1001D000EF5FFE4F908199838F70E82FF0E0EF5F23
:1001E000FE4F80818A838AE08B8363E070E0CE01DA
:1001F00001960E9472000F900F900F90DF91CF91A7
:100200000895CF93DF93C0E00E94A2008C2F880F47
:100210000E94B200D091B9000E94AA00D87FD831C4
:1002200001F565E170E081E191E00E947200EC2F40
:10023000E595E595E595E5950E2E000CFF0BEF5F36
:10024000FE4F80810E946400EC2FEF700E2E000C98
:10025000FF0BEF5FFE4F80810E9464008AE00E94E6
:100260006400CF5FCF3781F6DF91CF9108958CB5D1
:1002700080658CBD8CB58C7F8CBD1DBC1EBC08956B
:100280008EBD0DB407FEFDCF8EB508950F931F935D
:10029000CF93DF93289A2898C0E0D0E02A9A8E0165
:1002A000085D1E4FF80180810E944001F8018181A4
:1002B0000E944001F80182810E9440012A98299AF7
:1002C00029982896C033D10549F7DF91CF911F9126
:1002D0000F910895CF93DF93E8E2F1E0C9E2D1E016
:1002E000AAE2B1E080819881991F9927991F282F50
:1002F000220F922B90839C91292F221F2227221FAD
:100300009881990F922B98839C91990F881F882729
:10031000881F892B8C9338962896189681E0E835AB
:10032000F80701F7DF91CF910895AF92BF92DF9266
:10033000EF92FF920F931F93CF93DF9388E2A82E43
:1003400081E0B82E99E2E92E91E0F92E0AE211E05F
:100350006BE271E04CE251E02DE231E0CEE2D1E01F
:10036000AFE2B1E0F5018081F7019081991F9927F3
:10037000991FD82EDD0C9D29F5019083F8019081FD
:10038000D92EDD1CDD24DD1CF7019081990F9D29FC
:100390009083FB019081D92EDD1CDD24DD1CF8014A
:1003A0009081990F9D299083FA019081D92EDD1CAF
:1003B000DD24DD1CFB019081990F9D299083F901BB
:1003C0009081D92EDD1CDD24DD1CFA019081990F6E
:1003D0009D2990839881D92EDD1CDD24DD1CF90137
:1003E0009081990F9D2990839C91D92EDD1CDD244D
:1003F000DD1C9881990F9D2998839C91990F881FE6
:100400008827881F892B8C93F8E0AF0EB11C88E0F9
:10041000E80EF11C085F1F4F685F7F4F485F5F4F1A
:10042000285F3F4F28961896E8E5AE16E1E0BE0635
:1004300009F098CFDF91CF911F910F91FF90EF902E
:10044000DF90BF90AF90089533E0880F991F3A95E1
:10045000E1F7FC01E85DFE4F60834183228308954C
:10046000CF93DF931F92CDB7DEB7CE0101960E94E6
:100470008D00882309F455C080915A01882319F012
:10048000813079F14EC08981893639F481E08093D9
:100490005A011092590183E008C0893449F481E07F
:1004A00080935A011092590188E08093000104C0A2
:1004B000833711F40E946A018981833511F40E9407
:1004C00095018981823419F4109258012AC083362B
:1004D00011F481E003C0833421F582E08093580158
:1004E00020C02091590160910001422F50E036E078
:1004F000639FC0011124481759078CF4822F0E9472
:10050000F00238E0839FF0011124E90FF11DE85D4E
:10051000FE4F898180832F5F2093590102C0109282
:100520005A010F90DF91CF91089584B18F6284B901
:100530000E945300289A28980E94370181E18093F5
:1005400028018093290180932A0192E2909330013F
:10055000909331019093320124E420933801209349
:10056000390120933A0120934001209341012093C7
:100570004201909348019093490190934A018093DE
:1005800050018093510180935201C0E0D0E0DF5FC1
:100590000E94460140915801842F042E000C990BB3
:1005A00021E030E0DD2311F020E030E02823392382
:1005B000232B09F0CF5F21E030E0C33310F420E0BB
:1005C00030E082239323892B41F0413019F40E94BB
:1005D0006A0102C00E949501C0E00E943002D7CF9C
:1005E000991B79E004C0991F961708F0961B881F85
:0C05F0007A95C9F780950895F894FFCF24
:1005FC0003303132333435363738396162636465F0
:10060C0066466F756E642069326320646576696333
:08061C00652061743A20000022
:00000001FF
