:100000000C9434000C9451000C9451000C94510049
:100010000C9451000C9451000C9451000C9451001C
:100020000C9451000C9451000C9451000C9451000C
:100030000C9451000C9451000C9451000C945100FC
:100040000C9451000C9451000C9451000C945100EC
:100050000C9451000C9451000C9451000C945100DC
:100060000C9451000C94510011241FBECFEFD8E026
:10007000DEBFCDBF11E0A0E0B1E0EAE0F6E002C0F3
:1000800005900D92AA32B107D9F721E0AAE2B1E0BA
:1000900001C01D92AC36B207E1F70E94A2020C9497
:1000A00003030C9400001092C50087E68093C400FF
:1000B000E0ECF0E080818D7F808386E08093C20059
:1000C00088E18093C10008959091C00095FFFCCF16
:1000D0008093C6008091C00086FFFCCF0895809376
:1000E000C60008950F931F93CF93DF93EC018C010B
:1000F000060F171FC017D10721F089910E946400D5
:10010000F9CFDF91CF911F910F9108958091C00099
:1001100087FFFCCF8091C60008952091C00027FF83
:1001200006C02091C600FC01208381E0089580E094
:1001300008951092B90081E18093B80084E0809323
:10014000BC00089584EA8093BC008091BC0087FFC6
:10015000FCCF08958091BC0080FDFCCF84E98093A2
:10016000BC0008958093BB0084EC8093BC00809118
:10017000BC0087FFFCCF8FE79BEB0197F1F700C036
:100180000000089584EC8093BC008091BC0087FF40
:10019000FCCF8091BB00089584E88093BC008091DF
:1001A000BC0087FFFCCF8091BB0008958091B9000F
:1001B000887F08958091B900887F0895CF93DF9359
:1001C00000D01F92CDB7DEB7E82FE295EF70F0E0D8
:1001D000EF5FFE4F908199838F70E82FF0E0EF5F23
:1001E000FE4F80818A838AE08B8363E070E0CE01DA
:1001F00001960E9472000F900F900F90DF91CF91A7
:100200000895CF93DF93C0E00E94A2008C2F880F47
:100210000E94B200D091B9000E94AA00D87FD831C4
:1002200001F565E170E081E191E00E947200EC2F40
:10023000E595E595E595E5950E2E000CFF0BEF5F36
:10024000FE4F80810E946400EC2FEF700E2E000C98
:10025000FF0BEF5FFE4F80810E9464008AE00E94E6
:100260006400CF5FCF3781F6DF91CF9108958CB5D1
:1002700080658CBD8CB58C7F8CBD1DBC1EBC08956B
:100280008EBD0DB407FEFDCF8EB508950E94860089
:10029000843409F4A1C00CF041C0813309F45AC080
:1002A000ECF4803309F08EC080E00E9440012FEF13
:1002B00081EE94E0215080409040E1F700C00000C2
:1002C00080E00E9440012FEF81EE94E021508040B9
:1002D0009040E1F700C0000080E06FC0853309F472
:1002E00053C0863309F06EC086E60E9440012FEFAE
:1002F00081EE94E0215080409040E1F700C0000082
:1003000086E60E9440012FEF81EE94E0215080406C
:100310009040E1F700C0000086E64FC0843609F443
:100320004FC02CF48C3409F04DC02A9856C08C363E
:1003300079F0823709F046C0289A2FEF81EE94E0D9
:10034000215080409040E1F700C00000289845C04F
:100350002A9A43C08FEF0E9440012FEF81EE94E074
:10036000215080409040E1F700C000008FEF0E94D4
:1003700040012FEF81EE94E0215080409040E1F762
:1003800000C000008FEF19C085E50E9440012FEFEB
:1003900081EE94E0215080409040E1F700C00000E1
:1003A00085E50E9440012FEF81EE94E021508040CE
:1003B0009040E1F700C0000085E50E9440010DC0BB
:1003C00029980BC029982FEF81EE94E021508040AE
:1003D0009040E1F700C00000299A61E070E087E2F8
:1003E00091E00C9472000F931F93CF93DF93289AA0
:1003F0002898C0E0D0E02A9A8E01065D1E4FF801D1
:1004000080810E944001F80181810E944001F80131
:1004100082810E9440012A9887EC90E00197F1F7D1
:1004200000C00000299A29982896C033D10519F7F1
:10043000DF91CF911F910F910895CF93DF93ECE25D
:10044000F1E0AAE2B1E0CBE2D1E08081982F991FE0
:100450009927991F8881282F221F2227221F8C91DC
:10046000880F822B8C938081282F221F2227221F06
:100470008881880F822B88838081880F892B8083D5
:1004800038961896289681E0AA35B807F1F6DF91DC
:10049000CF91089533E0880F991F3A95E1F7FC0159
:1004A000E65DFE4F6083418322830895CF93DF93FF
:1004B0001F92CDB7DEB7CE0101960E948D00882332
:1004C000E9F180916B01882319F08130D1F036C0B9
:1004D0008981893431F481E080936B0110926A0143
:1004E00004C0833511F40E941D028981823419F4FD
:1004F0001092000123C0833409F581E0809300014C
:100500001DC020916A012231B8F4822F63E00E945D
:10051000F702EBEA2E9FE12D1124E69588E0E89F93
:10052000F0011124E90FF11DE65DFE4F8981808302
:100530002F5F20936A0102C010926B010F90DF9130
:10054000CF91089584B18F6284B9289A8FE39CE992
:100550000197F1F700C0000028980E9437019FEF33
:1005600021EE84E0915020408040E1F700C000007F
:1005700081E180932A0180932B0180932C0192E2E8
:1005800090933201909333019093340124E42093AB
:100590003A0120933B0120933C0120934201209398
:1005A00043012093440190934A0190934B0190930F
:1005B0004C01809352018093530180935401C0E019
:1005C000CF5F0E94F30121E030E0CC2311F020E066
:1005D00030E080910001082E000C990B82239323B8
:1005E000892B11F00E941D020E945602E9CF991B2F
:1005F00079E004C0991F961708F0961B881F7A951A
:0A060000C9F780950895F894FFCF24
:10060A0001303132333435363738396162636465E3
:10061A0066466F756E642069326320646576696325
:0A062A00652061743A20002E0000E4
:00000001FF
